:10000000D82B0020B9280000B5280000B528000032
:1000100000000000000000000000000000000000E0
:10002000000000000000000000000000B5280000F3
:100030000000000000000000B5280000B528000006
:10004000B5280000B5280000B52800005D0E0000AE
:10005000B5280000B5280000B5280000351F0000B5
:10006000B5280000B5280000B5280000B52800001C
:10007000B5280000B5280000B5280000B52800000C
:10008000B5280000B5280000B5280000B5280000FC
:10009000B5280000B5280000B5280000B5280000EC
:1000A000B5280000B5280000B5280000B5280000DC
:1000B00010B5064C2378002B07D1054B002B02D03E
:1000C000044800E000BF0123237010BDF0000020B1
:1000D00000000000F430000008B5084B002B03D0EE
:1000E0000748084900E000BF07480368002B03D019
:1000F000064B002B00D0984708BDC046000000000A
:10010000F4300000F4000020F43000000000000093
:10011000EFF3108072B6BFF35F8F034B00221A70AB
:10012000434258417047C046E8000020024B1A780D
:10013000013AD2B21A7070479C030020044B1A781F
:10014000013AD2B21A701B78024B00221A70704723
:1001500016010020A20300200020704700207047F5
:1001600010B50F4B0F4C0020207018800E4BA122B1
:100170001A7020225A7002220C4958809880DA8026
:100180001881E1235B020B600823087148718B71B1
:10019000074B9847237801200133DBB2237010BD51
:1001A0003A0600209C030020AC0300200C01002034
:1001B000D92E000008B500200149024B984708BD20
:1001C0000C010020D92E0000002805D0034B01228D
:1001D0001A70BFF35F8F62B67047C046E800002018
:1001E000124B60211A7850B20A40002809DA002028
:1001F000202A1AD15A78212A17D1DA88072A14D14D
:100200000FE00020202A10D15A78202A04D0101C98
:1002100022384242504108E0DA88072A05D10449D1
:10022000196104499A8199600120704744090020AE
:10023000B50100000C010020F7B5364B1A78002AF2
:1002400066D1354CA047354D2C8800280FD0344B53
:10025000984784425CD0334B9847334A334B1478E9
:10026000071CE4B26100C95A002919D101E0304BE2
:10027000EEE7304E28493388013333808847002821
:1002800006D13388632B03D8381C2B4B98473FE0AB
:10029000214A9047002803D03288284B9A42F3D94C
:1002A000244B00221A80264B1B78934205D16342CF
:1002B00063411D49DBB20B7002E063425C41E4B272
:1002C000144A01231370381C1B4B9847174B6700C7
:1002D000DE5B413EFF3E731E9E41F6B2002E09D00A
:1002E0000D498847002801D00D4B00E0104B98477E
:1002F000288000E02E800D49A20124021419CB5B56
:10030000104A1149121900918120311C0F4CA0474D
:10031000F7BDC046A8030020B5140000A0030020CC
:10032000C91400001101000017010020180100206D
:10033000B914000014010020C90100001F030000CF
:10034000390600201C0100205D0300004517000055
:1003500008B5014B984708BD3902000008B50028D0
:100360000CD1074B1A7853425A41064B5200D052D7
:10037000054B1870054B1870054B984708BDC046D3
:10038000170100201801002039060020A8030020D2
:100390003902000010B5074B9847074A074B1B88E6
:1003A0001178074A49008C5AE41A064B9847201CDA
:1003B00010BDC04611010000A30300209E030020D1
:1003C000A4030020C901000008B5034B9847431E51
:1003D0009841C0B208BDC04695030000F0B5194B66
:1003E00085B098471849194A0C781578E4B2EDB2EF
:1003F000002D08D1164E670033880393154BFB5A26
:10040000039FBB4203D9144B9847002018E0358066
:1004100066426641F6B20E700F4F01261670B8475D
:100420000E4B281C9847A2010D4B240214190D4AAB
:100430000093A02312190220311CB3400A4CA0479C
:1004400005B0F0BD11010000A30300203806002014
:100450009E030020A4030020C9010000C90300007E
:10046000F1040000B80300204517000038B5134B15
:10047000134D00242C701C70124B1C70124B1C70FE
:10048000124B1C805C80124B1C80124B9847124B05
:100490001C70124B1C70124B1C80124B1C80124B98
:1004A0009847A04209D02B780133DBB22B702B7810
:1004B000DBB2012B01D10D4A137038BDA803002017
:1004C0001601002039060020170100201801002025
:1004D000A00300203902000038060020A3030020FA
:1004E000A40300209E030020DD030000A2030020DF
:1004F00013B500281CD10F4B1B785C426341DBB263
:1005000000290ED199011B02CB180B49101CCB18E6
:100510000A491A1C0091A02301218B40084CA047D6
:1005200006E0084A5B009952074B1870074B984742
:1005300013BDC046A3030020B8030020F10400004F
:1005400045170000A403002038060020DD0300004A
:1005500008B50020014B984708BDC046C9030000FC
:10056000F7B5194B00269B79093B5A425341DBB240
:100570000193164B9847164B164F3C881D78164B27
:100580009847EDB2154B6A00D35AA4B2A34205D8DE
:10059000134B1878C0B20028EBD113E0AB012D0249
:1005A0005D19104B2D19EB5C01341E43A4B20E4BA8
:1005B0003C809847019B002B03D000233602019317
:1005C000D7E7301CFEBDC0460C0100201101000021
:1005D000A30300209E030020C9010000A403002003
:1005E000A2030020B8030020DD03000038B5114B42
:1005F0009847114A114B1178C9B24C00E45AA02314
:100600005B009C420FD10E4B1B78002B0BD10D4D84
:100610002B78DBB2002B06D101242C704C426141B7
:10062000C9B211701C1C084B9847A0204000001B49
:1006300038BDC0461101000017010020180100203C
:10064000A803002039060020C901000008B5034BAB
:100650009847431E9841C0B208BDC046ED05000052
:1006600008B50020014B984708BDC0464D06000064
:10067000F8B5154B0C1C9D79093D6B425D41EDB2FF
:100680000020124B9847002805D1114B1878C0B2B2
:100690000028F5D117E00F4B98470F4B0F491B78F7
:1006A000DBB25E00725A571C775299011B02CB18BD
:1006B0000B499A180B4B54549847002D02D0241222
:1006C0000025DDE70120F8BD0C0100204D060000EB
:1006D000A2030020110100001701002018010020D2
:1006E0001C010020C901000008B5011C014B0020BD
:1006F000984708BD7106000008B5034B58887F2352
:100700001840024B984708BD44090020C518000056
:1007100030B5144B1A7800239A4221D0124B1B6833
:100720001B681A79824201D8002319E00F4A13602E
:10073000DC789D7824022C431C199C420ED95D78EC
:10074000042D08D19D78854205D1DD788D4202D1F6
:100750001360012304E01D785B19EEE71360E3E703
:10076000181C30BD48060020400600204C06002022
:10077000094B1B681B68DA78997812020A439B18A8
:1007800002788018834205D94278042A02D0052ACB
:10079000F6D100E0002070474006002038B5104B2D
:1007A000051C9847002801D1002018E00D4B1C685B
:1007B000201C0D4B9847041E0AD06279237912023F
:1007C0001A438078E178094B98470028F0D1EBE78D
:1007D000074BAD001B685B68EB581B68984738BD3A
:1007E000110700004C060020710700002D150000C5
:1007F00040060020F8B500210F4F051CB847041E25
:1008000018D00E4BAA001B685B68D658F36898474F
:10081000011C281CB847041E0CD0094B1D68281C5D
:10082000084B9847051E03D08078074B9847F6E79A
:1008300073689847201CF8BD11070000400600208F
:100840004C06002071070000D914000008B5014BC8
:10085000984708BD9119000038B50C4B00241A7850
:100860001D1CA24205D100232B70094B01221A80C6
:1008700038BD084B1B681B681B79A342F3D9201CA9
:10088000054B01349847E4B2F3E7C0464806002020
:100890004606002040060020F507000008B5024B80
:1008A0009847024B984708BDF51900005908000009
:1008B00010B50B4B00241B78A3420FD0094B1B68CB
:1008C00019680A79A24209D95B68A200D3581B694A
:1008D000002B00D098470134E4B2EFE710BDC046CA
:1008E0004806002040060020F8B5A34C0023A38151
:1008F00023616361237858B2002803DAE288002A72
:1009000000D1ADE16021194000D063E11F22002831
:1009100000DBA7E0E588002D00D15BE1134065D145
:100920006378062B09D0082B5BD0002B00D051E157
:10093000022D00D04EE1914890E063881D0A022DFF
:100940000CD006D8012D00D044E18D4B18680178F9
:100950003EE0032D1FD00F2D13D03BE1884ADBB2C0
:100960001068417C994200D834E15268DB00985805
:10097000C178837809021943824B9847A1684D706A
:1009800028E07F4B9868002800D123E1C178837864
:10099000090219431CE0DBB2012B04D0002B05D067
:1009A000022B06D016E10921774A04E0774804219A
:1009B0000EE0774A0F21002376485D00D65C45198A
:1009C00001336E80DDB28D42F6D3490002310170F1
:1009D0006C4B9847E388A2899A4200D8CAE0A38169
:1009E000C8E0012D00D0F5E06B4837E0012B25D1A0
:1009F00063780A2B00D0EDE0012D00D0EAE0664BD1
:100A00001B78002B00D1E5E0644B26791F683A681B
:100A10001379B34200D8DDE0301C614B9847051EC6
:100A200000D1D7E07B68B600F358DB6898475D4B90
:100A300001211870181C534B984799E0022B00D0E5
:100A4000C8E06378002B00D0C4E0022D00D0C1E0E4
:100A5000554B20799847554B1880181C291C494B39
:100A6000984787E013404DD160780138082800D9B5
:100A7000B0E002F033FA0CAFAFAF05AFAFAF1A0082
:100A8000E388002B00D0A5E0494B236172E0E388A6
:100A9000002B00D09EE06388012B00D09AE0374BFA
:100AA00002211A888A431A8064E0E588002D00D06C
:100AB00090E0404B9847002800D18BE0304EA27860
:100AC0003068437C9A4200DD84E03B4B9847A37832
:100AD000314A1370002B4DD03849304A5B18716889
:100AE000DB00CB181360161C33681B681B79AB4204
:100AF00040D9281C0021324B984700286AD0013584
:100B0000EDB2F1E7012B15D163780B2B62D1E388AD
:100B1000002B5FD1204B1B78002B5BD02579294B14
:100B2000281C66889847002854D0F1B2281C244B12
:100B300098471CE0022B4DD16378012B02D0032B88
:100B400009D047E0E388002B44D16388002B41D1D2
:100B500020791D4B0AE0E388002B3BD16388002BF2
:100B600038D12079194B98472079194B9847051CA3
:100B7000002D2FD0012074E04409002046060020FB
:100B800074000020E51800003800002064000020F8
:100B900028000020440000204806002040060020D5
:100BA000110700003C060020F91500004406002053
:100BB000F9060000D518000059080000FFFFFF1FCC
:100BC0009D070000F50700000917000079140000D8
:100BD0000D16000022781F231340012B1ED1214B3C
:100BE0001B78002B1AD0204B25791E6832681379A8
:100BF000AB4213D9281C00211C4FB84700280DD048
:100C00007368AA00D658F3689847011C281CB84797
:100C1000002803D0B36898470028ABD122781F235F
:100C20001340022B1CD10F4B00241B78002B17D034
:100C30000D4B1B6818680279A24211D95B68A200AB
:100C4000D558E9688847094B011C201C98470028A3
:100C500006D0AB68984700288CD10134E4B2E7E7AE
:100C60000020F8BD480600204006002011070000C3
:100C70000368987AC009704770B50C4B0822056864
:100C8000041CDA67201C0A4EB0470028FAD12B88D2
:100C9000022293432B8020756075201CB0470028EA
:100CA000FBD12B88012213432B8070BD04E100E0AF
:100CB000710C0000F8B50668071C0D1C141C381CCC
:100CC0000F4B98470028FAD13A79002A0AD01A2304
:100CD000012A12D11723012C0FD80634A400A551E4
:100CE000031C0AE01723022C07D806498D4204D8BA
:100CF0000C34ADB26400A553131C181CF8BDC046DB
:100D0000710C0000FFFF0000F7B52D4B0160151CB2
:100D10009A6920210A439A6101A90223041C0B70DD
:100D20000420284B98470420274B9847274B201C2A
:100D30009847AB7823712B796371254B1C602B8806
:100D400026683380AB78002B16D01720012B36D1C4
:100D500033889BB23380EB78002B03D0338880221A
:100D600013433380201C1B4B9847021EFAD1201CD2
:100D7000A968194B984719E033880422134333803C
:100D8000EB781720002B1AD1201C124FB847021EF7
:100D9000FAD1201CA968104FB847201C0D4B98476A
:100DA0000028FAD1201CE9680122B8472B790020DD
:100DB000834204D072888023DB0113437380FEBD1D
:100DC00000040040C52700003D270000790C00000A
:100DD00018070020710C0000B50C000070B50379F5
:100DE000041C05680E1C1520002B05D1201C034B8C
:100DF00098470028FAD1AE8270BDC046710C000041
:100E0000031C022A0CD00079002805D0012805D146
:100E10001720012A0FD803E0022A01D917200AE07F
:100E2000901C8000C1500120197D9040021C0A4393
:100E3000D2B21A750020704710B5036880220229CB
:100E400003D001228A4003242240DA710122437D2B
:100E50008A40111C1943C9B2417510BD38B5114BF8
:100E60001B68597D1C681A7D207A0A40E17901408F
:100E7000C80906D0510701D51B6998478023237202
:100E80000EE00125294203D02A4208D09B6805E0E4
:100E90000225294204D02A4201D0DB6898472572F6
:100EA00038BDC04618070020EFF3108072B6BFF3BC
:100EB0005F8F034B00221A70434258417047C0466F
:100EC000E80000200F2303405B00C0091818023817
:100ED00014235843014B18187047C046540600208D
:100EE000F0B58E7985B072B20D1C544B301C002ABF
:100EF00046DA98470F2737400197028AC368029263
:100F00006D88041CED188368C560877C9D4221D0E4
:100F10005E1B4B4AB6B2964206D94A4B101C029948
:100F20009847474B5E1AB6B20023BA0706D5464B20
:100F3000301C029998478BB25A4253415A00A37C05
:100F400002218B4313436268A37452193F480199ED
:100F5000331C0AE0B807C00F0AD0022362689F431F
:100F60003A480199A77452190023394CA04763E00D
:100F700001239F432368A774002B5DD0291C59E0EF
:100F800098470F2333400293038A041C0193837C08
:100F90002F885A0710D5C268436801999B1803939C
:100FA0008068294B98470A1C02992A4B013989010C
:100FB000C9180398284B9847E368FA18A368E260B9
:100FC0009A4200D9E360AA88BA422AD1E5689D42D4
:100FD00027D05E1B1A4FB6B2BE4206D9381C194B39
:100FE000019998477F1ABBB205E0301C164B019956
:100FF0009847761AB3B2019A1448184E93420BD20E
:10100000A37C04221343029AA374013A114B920168
:10101000D2180299019B02E0626802995219B04706
:101020000AE0A37C01229343A3742368002B03D01E
:10103000E1680020321C984705B0F0BDC50E0000E5
:10104000FF1F000039300000792F0000DC0700206E
:101050005D1E00001C0700209D300000A91E00003E
:1010600010B5064B064C05221A70201C8021054B3A
:101070009847201C0021044B984710BDCF06002044
:10108000DC070020E31D0000FD1D000037B51E4BEE
:10109000041C9847226801AD80239372281C1B4BC7
:1010A000984703236B70291C201C194B9847201C60
:1010B0001849194B9847194D201C00210222184B42
:1010C000A84700210A1C201C164BA847164B201CC1
:1010D00000210122A847154D201C00210222A8470B
:1010E00000210A1C201CA847201C00210122A8471F
:1010F00023680F4A19890A408021C9000A431A81CE
:101100000C4B00221A7037BD59080000011C00006A
:10111000111C00005C090020F11E0000991A00005B
:10112000851200003916000075110000E91A000050
:10113000FFF3FFFFCF06002010B5084B084C032239
:101140001A70201C0749084B9847084B00219A68E1
:10115000201C0B1C064CA04710BDC046CF0600202B
:10116000DC0700205C090020F11E0000440900207B
:101170005D1E000008B589790C4B4AB2002A08DAD6
:101180001B78012B02D10A4B98470DE0042B0BD1A1
:1011900007E01A78022A02D104221A7004E0032A16
:1011A00002D10448044B984708BDC046CF06002032
:1011B00039110000DC070020E31D0000F8B51D4DCB
:1011C0001D4E2B88B4891D4FE41AA4B2002C1BD1EC
:1011D0001B4A11885B189BB21380F2889A4203D095
:1011E000184B1B78002B07D0174B04221A70381CA1
:1011F0001649174B98471CE07369002B0BD0984792
:10120000002808D02C80B4893F2C04D90D4B002233
:101210001A70402402E00B4B01221A702B88B2682E
:10122000381CD2180021231C0A4EB0472B88E41822
:101230002C80F8BDCC06002044090020DC070020EB
:1012400050060020D0060020CF0600205C090020B8
:10125000F11E00005D1E000008B5014B984708BD57
:10126000B1080000064B9A8C910605D4D968D022AB
:101270000A40D02AFAD102E0DA68D106FCD57047DC
:101280000008004070B5274E0C1C3378002B06D0A8
:10129000254B1B69002B00D098470023337023880F
:1012A000082B01D0214B2DE0214C1F4D23782B70B2
:1012B00063786B70E378A2781B02D3186B80637934
:1012C00022791B02D318AB80E379A2791B02D318D1
:1012D000EB80184B98470028E4D02B787F2B0DD952
:1012E000154B00211980154B221C198002233370E5
:1012F00013484023134CA047134B03E0EB88002B0B
:1013000002D1124B98470BE00B4B002119800B4B7D
:10131000221C19800123337009484023094CA0473F
:1013200070BDC046CF0600204409002061100000B7
:101330005C090020E908000050060020CC060020CF
:10134000DC070020A91E0000BD11000039110000BB
:10135000002805D0034B01221A70BFF35F8F62B6DD
:101360007047C046E8000020F7B501AE114B041CE1
:101370001149301C04229847104B1D78A54217D004
:10138000002C08D00E4B375D98470E4BDA5D0132CA
:10139000DA550D4B9847002D08D0094B755D9847DD
:1013A000084B5A5D013A5A55074B9847034B1C703E
:1013B000F7BDC0469D300000BE300000CE060020C4
:1013C000A90E0000100700205113000038B5084C8A
:1013D000084D201C0621A847201C0421A8470221F3
:1013E000201C054B98470220044B984738BDC04647
:1013F000DC0700207D1A00005D1A00006913000060
:1014000038B50B4B98470B4C0B4B201C02219847CF
:101410000A4D201C0421A847094A0A4B201C06211A
:1014200098470621201CA8470320074B984738BD42
:1014300065120000DC0700207D1A00005D1A000024
:10144000CD1300003D1A00006913000010B5064CD2
:101450000421201C054B98470221201C044B98476F
:101460000120044B984710BDDC0700207D1A0000C6
:101470005D1A00006913000038B5041C211C0A48DD
:101480000A4B98470A4B201C9847827C031CD107C3
:1014900008D501201D6882439A74002D02D0D968B6
:1014A000221CA84738BDC046DC070020991D00005B
:1014B000C50E000000207047024B1B68188A80048C
:1014C000400D7047DC070020024B1B68188A80B271
:1014D0007047C046DC070020F7B501AD041C0D4B7A
:1014E000281C9847201C0C4B98470C4F0026291CA1
:1014F000381C0B4BEE702C7098470F21321C21408A
:10150000381C084B9847381C321C211C064B984746
:10151000F7BDC046011C000079140000DC07002064
:10152000111C0000C11A0000751B0000F7B501ACCA
:10153000061C294B201C0F1C151C984726700023E5
:10154000082D1DD90123102D1AD90223202D17D9BA
:101550000323402D14D90423802D11D980235B004F
:101560009D4201D805230BE080239B009D4201D8BA
:10157000062305E0194B9D4201D900202AE00723EC
:101580006370301C164B98470323391C05821940A1
:10159000012901D1022304E0022902D00329ECD160
:1015A0000423104DE370211C281C0F4B9847041E88
:1015B000E3D10F21221C0D4B3140281C0C4FB847A2
:1015C000221C311C0B4C281CA047281C311C01225A
:1015D000A0470120FEBDC046011C0000FF03000023
:1015E000C50E0000DC070020111C0000E10E000009
:1015F000991A0000E91A000008B5011C014B0248C5
:10160000984708BDC51D0000DC0700200F2310B55A
:101610000340041C0020032B07D80448211C044B62
:101620009847201C034B9847012010BDDC07002081
:10163000E31D000079140000F8B5284E3378012B23
:101640003FD1274A274C0D881788A3897A199342DE
:1016500001DADD1BADB2A3682349D8192A1C234B3C
:10166000EF199847BBB21E4F3B80402D05D1204D4E
:10167000E1882A88D218914208DCA3816369002B93
:1016800002D0984700280AD01A4B1DE0A2899A423E
:1016900010D16069002802D08047002804D10523BA
:1016A0003370154B984718E03A882B88D3182B8055
:1016B00000233B8000210C4A4023104C1048A047D7
:1016C0000BE0022B02D10F4B984706E0054B1B693C
:1016D000002B00D0984700233370F8BDCF060020C0
:1016E000CC060020440900205C0900209D30000049
:1016F00050060020391100000D160000A91E000040
:10170000DC070020BD1100000F2370B50340061C4C
:101710000024032B0ED8084B9847084B051C311C9E
:1017200007489847AB7C0124DA0703D5A343AB7481
:101730002B689847201C70BDC50E0000FD1D0000E1
:10174000DC070020F0B51E1C0F2385B00340071CEA
:10175000029103920193032B01D9002596E04D4B92
:101760009847051EF9D14C4B381C98474B4B041C2D
:101770009847A27CD10702D5494B984786E00123C0
:101780001A43A274002804D0464A1370BFF35F8F37
:1017900062B60023E3600A9B039A0298A17C23604F
:1017A00001236260184002229840914301430420C3
:1017B0008143A17479B2A660002930DA002E1AD0D4
:1017C000394DB6B2AE4205D9218A281C374B98470D
:1017D0006E1AB6B202990023994206D0344B218A80
:1017E000301C98478BB25A4253415A00A37C0221C5
:1017F0008B43134304E00299002909D0A37C93434F
:10180000A3740199039A331C2A4C2B48A0473AE051
:10181000A27C9A43A2740A9A002A08D10CE0002EF6
:101820000CD1A27C0A999A43A274002904D000200A
:10183000011C3A1C0A9B9847012527E01A4FB6B2B3
:10184000258ABE4206D9381C184B291C98477F1A96
:10185000BBB205E0301C164B291C9847761AB3B270
:101860001548164EAB420BD2A37C04221343019AB7
:10187000A374013A124B9201D21801992B1C01E07A
:101880000199039AB04745424541EDB2281C05B085
:10189000F0BDC046F9150000C50E0000A90E0000FD
:1018A00051130000E8000020FF1F00003930000045
:1018B000792F00005D1E0000DC070020A91E00003B
:1018C0001C070020024B80221B681043987270474F
:1018D000DC070020024B1B68987A7F231840704772
:1018E000DC070020014B9860998170474409002073
:1018F00008B5044B01201B681A8902431A81024B68
:10190000984708BDDC07002069130000F8B50320E4
:10191000164B9847164C01272368164E1A89201C2F
:10192000BA431A810421144AB047201C0021134AEB
:10193000B047391C201C124AB047124A201C022111
:10194000B047114D201C0421A847201C0021A847A6
:10195000391C201CA847201C0221A8470B4A201C28
:101960000621B047201C0621A847F8BD69130000D6
:10197000DC0700203D1A00004D1400005912000041
:101980008D100000011400005D1A0000CD1300004E
:1019900073B50E4B984701AC061C0D4B201C9847A5
:1019A0000C4D00230C49221CA370281C0B4B98479C
:1019B000281C0B4B98470B4B984701200A4B984724
:1019C0000A4B9847301C0A4B984773BDA90E00007C
:1019D00045210000DC070020005000415521000097
:1019E000211F000065120000691300000D1900009E
:1019F0005113000010B5074B98470020064B98473D
:101A0000064B9847064B041C9847201C054B9847EB
:101A100010BDC046F118000069130000A90E0000B7
:101A2000291A000051130000034B1A78002A01D034
:101A300000221A707047C046D10600200B1C2E33BE
:101A40009B001A50044AAA235B004900895AC25AD3
:101A50000A43C25200207047C2300000064B4900C2
:101A60000268CB5A9383AB225200815A19438152A8
:101A70000268002013837047C2300000054BAB2280
:101A800052004900CB5A815A994381520268002082
:101A900093827047C230000010B58C00A418343413
:101AA000A4000419411863605931044BFF310878D0
:101AB0009B5C03430B70002010BDC046D03000007B
:101AC00010B58C00A418031C34345B18A40004194E
:101AD0000449002059336060FF33895C1A788A43D7
:101AE0001A7010BDD030000070B50F230B40C41821
:101AF00061341F4DFF342678AD5C35432570002AD4
:101B00000ED10268002B02D1FF3203230FE05B01EC
:101B1000D31849B2FF330222002926DB012224E038
:101B2000012A0FD10268002B03D1FF320C239372DC
:101B30001CE05B01D31849B2FF330822002914DBF3
:101B4000042212E0022A05D102685B01D318FF3398
:101B500010220AE0032A09D102685B01D31849B2B6
:101B6000FF334022002900DB20229A72002070BD42
:101B7000D030000070B50F230B40C4181F4D6134E6
:101B8000FF34AE5C2578B5432570002A0ED102687B
:101B9000002B02D1FF3203230FE05B01D31849B2BF
:101BA000FF330222002926DB012224E0012A0FD183
:101BB0000268002B03D1FF320C2353721CE05B013F
:101BC000D31849B2FF330822002914DB042212E0A3
:101BD000022A05D102685B01D318FF3310220AE004
:101BE000032A09D102685B01D31849B2FF334022AE
:101BF000002900DB20225A72002070BDD030000086
:101C000000230370437083700123C370704700008A
:101C1000F0B5021C0D78C8780F232B40ED0904287D
:101C200000D998E0146801F059F90308495D7A0079
:101C300008335B010020E054A9E05D016419FF3422
:101C400066781C20770700D0A1E0677870263742BD
:101C500000D09CE011206070146808335B01E0182C
:101C6000402444711268D31880221A718A78484B34
:101C7000002A08D05A195468802000060443546092
:101C80005469204307E05A195068400040085060EA
:101C900050694000400850615D194C78686807221F
:101CA0003C4B1440184024072043686049780A40A0
:101CB000696912070B4013436B6162E058012418F5
:101CC000FF34002D07D0677870261C2037425ED184
:101CD0006078202612E066781C20770757D160785C
:101CE00002262FE058012418FF34002D10D0677809
:101CF00070261C2037424AD160783026304360700D
:101D000010681A1C0832520182188020107122E0DB
:101D100066781C2077073AD16078032612E05801D4
:101D20002418FF34002D07D0677870261C20374216
:101D30002DD160784026E1E766781C20770726D110
:101D4000607804263043607010681A1C0832520113
:101D50008218402050715B005D190D4B48782D01B1
:101D60005B19072210405C680A4A000722400243C0
:101D70005A608878002806D05968802212060A43E3
:101D80005A60002003E05A68520052085A60F0BDC1
:101D90009C090020FFFFFF8F0F230B4002680833D0
:101DA0005B0149B2D218002905DA8021117102685D
:101DB000D318022204E0402151710268D318012295
:101DC000DA7170470F220A400368083252019B18EB
:101DD00049B29879002901DA800600E0C006C00FF8
:101DE00070470F220A4003680832520149B29B181B
:101DF0002022002900DB10225A71704730B50F22D3
:101E00000A404CB201685301C918FF31CD79002C4A
:101E100011DA2024254220D04C710168CB18FF3301
:101E20001C7A40210C4218D0197203680832520102
:101E30009A18022310E0102425420ED04C7101683C
:101E4000CB18FF331C7A20210C4206D0197203688C
:101E5000083252019A180123137130BD70B50D1C60
:101E6000046808356D012E5D1C247606760F14D0AB
:101E70000B4C490161180A610C1C0A4A49690A4065
:101E800062619A046369920C9B0B9B031343636129
:101E9000036800245D1980236B71201C70BDC0464F
:101EA0009C090020FF3F00F0F0B50D1C04680835C8
:101EB0006D012E5D1C24770713D00B4C49010A518C
:101EC00061184C689A04094B1209234013434B6074
:101ED0004B6800249B0B9B034B6003685D194023F8
:101EE0002B71201CF0BDC0469C090020FF3F00F074
:101EF000094B0A4A196059680A40802189020A433D
:101F00005A605A68920B92035A6003684022FF336A
:101F100000205A717047C0469C090020FF3F00F026
:101F2000036802211A780A431A7002689378022B18
:101F3000FCD07047F0B57E4C85B0206802681378FD
:101F4000DB0900D0F2E0118C8FB2002F4CD1AB2313
:101F50005B00C65A958BAA235B00ADB2C35A2E40D4
:101F60001E40744B7A00D35A1D4202D02268126878
:101F700093831E420FD07049062F06D16F4B1A89EA
:101F8000802312095B0013400B603B1C20682E333A
:101F90009B001B5898470137072FE2D1C6E01E1C53
:101FA0000836B025009674016D00C61875195936AB
:101FB0001419FF36B4460294E4792E7803956546E9
:101FC0002D78E4B22E40351C60262540344212D1D3
:101FD000102634422AD10C2634423AD1A60776D1B3
:101FE0000133082B00D1A1E03C1C1C410125D9B2D2
:101FF0002C42F5D0D3E75C011219FF32167A402447
:10200000264204D0147280225242114304E0167A10
:102010002024264202D01472494A9171602215424E
:1020200000D183E01B01C318DC337CE0029F0399DD
:10203000FE710A78324279D040495A018A185268B2
:102040001B0192043E49C318920CD8330A805B6886
:102050006BE05C011219FF32177A082637421DD057
:102060001672364A1419A67E02221834164202D07D
:10207000A6789643A670802252421143304A91714D
:10208000009902684F01D719FA7994074ED40C22AF
:1020900015424BD01B01C318D43344E0167A0427F1
:1020A0003E42F4D01772254A1219967A0224083259
:1020B000264202D09678A6439670214A91710099E3
:1020C00002684F01D719FA79D407E0D52EE05C01F8
:1020D0001219FF32177ABC46664602273E420CD0E0
:1020E000802617727642164A3143917113490C19B2
:1020F00061698904890C518010E0177A0126374202
:102100000CD016720E4A91710C490C196168890441
:10211000890C118061680901890C9180AF0705D095
:102120000D331B01C3185B680549984705B0F0BD26
:10213000E4060020C2300000D40600209C090020E4
:10214000DC06002000220123027043708270C370FD
:1021500070470000F7B5171C634A00231360634AF9
:10216000051C1060624A29600C1CD169202001AE58
:1021700001430120D16106227370B070F370182002
:102180005C4B311C3270984706205A4A3070311C23
:1021900019209047BB786846037069460620564B65
:1021A0009847564B06209847237801221343237003
:1021B000A378D807FCD452490B685A0B1F231A4046
:1021C0009A4200D105221A409001268D4D4A324094
:1021D000024322850868820C13401F2B00D11D2367
:1021E000208D1F2213409043034323850B68072251
:1021F000DB0D1340934200D103231340218D1A03BA
:10220000414B42480B401343238521783A787F2382
:10221000D2010B40134323707978012319402378AE
:102220000422890093430B4323706062FB78012BE7
:1022300004D12B680C211A898A4306E0002B05D1B2
:102240002B680C241989A1430A431A818022304B40
:102250000021520098470023E918002204334A6005
:10226000202BF9D1A918002310324B628B62CB626C
:102270000B63802AF6D12A1CA43213705370E9181C
:10228000081C0022A630AE31013302700A70082B00
:10229000F5D1131CE918B831002204330A601C2B55
:1022A000F8D1A918081C0023D430E03110320360A3
:1022B000436083600B60802AF3D1AA225200AB52A4
:1022C000AB225200AB52AC20EA1840001118613228
:1022D0000020FF32013308701070082BF3D10D4B32
:1022E00080221A60FEBDC046D8060020E406002009
:1022F0000004004061280000C52700003D270000C1
:10230000246080003FF8FFFFFF8FFFFF9C09002043
:10231000AF30000000E100E0094B196800290BD143
:10232000EFF31080074A002805D172B6BFF35F8F24
:1023300005490870012111701A6801321A6070474E
:10234000E8060020EC060020E8000020084B1A6890
:10235000013A1A601B68002B09D1064B1B78002B31
:1023600005D0054B01221A70BFF35F8F62B670472C
:10237000E8060020EC060020E8000020F7B501ACDC
:1023800001250027084E211C1B206570A7702570B1
:10239000B047064B802212059A610F20211C27703E
:1023A0006570B047F7BDC046B1230000004400414E
:1023B00007B5802201AB1A700A785A704A789A7071
:1023C0008A78191CDA70014B984707BD6128000014
:1023D00010B50C4B02211A680A431A601968802252
:1023E0009143094A89B29184101CC168064ACC06FF
:1023F000FBD599680020D162596891621B689BB235
:10240000938410BDF00600200008004070B50D4B0D
:1024100045781E6A81780478012240208643154061
:10242000AD01301C0A402843D10180229043021C98
:102430000A43054803212140090202400A431A6267
:1024400070BDC04600080040FFFCFFFF30B5027AB7
:10245000438992069B059B0D120C1A43124B5A603E
:1024600042888188C4791143827922430A434178A2
:10247000C9010A431A600278042A0BD1047BC1897E
:10248000058A0A48A40609042C43014021439960A7
:10249000196806E0202A06D1028A9A601968842207
:1024A000D2000A431A6030BDF00600200000FF038E
:1024B00008B5082828D800F011FD122727100B189E
:1024C000051E2100114B02211A6A0A431A6204E018
:1024D0000E4B02219A690A439A61002015E00B4BCA
:1024E00002211A8A0A431A82F7E7084B02219A8AC4
:1024F0000A439A82F1E7064B984706E0054B022112
:102500001A780A431A70E8E7172008BD000800404F
:10251000D123000044080040F0B5C223344EDB0054
:10252000B360344B1E215A688BB08A4304210A439E
:102530005A6005A800234380837143700723037307
:102540003F232022C3812C4B02701A68920E3F2A2F
:1025500000D11F22294B2A491B689B059B0D8B42EA
:1025600000D1284B43810823C37180235B00838003
:10257000254B02720382254B984701A801230025B1
:102580008370234B457005709847224B062098476F
:10259000214B984702AC0323211C6570257265729C
:1025A0002370022020231D4D6360A84702201C4F8A
:1025B000B8471C4B98472A1CF1680D4BC806FBD541
:1025C000998C802001439984174B002507211D72A7
:1025D000281C5D729D7201232170211C636023728F
:1025E000657065729047281CB8470BB0F0BDC046B7
:1025F0000008004000400041246080002860800006
:10260000FF030000FF01000080BBFFFF4D2400001E
:102610000D240000B12400003926000059260000D6
:10262000FD260000D123000000040040014B587833
:10263000C0097047000C0040054B08219A690A4305
:102640009A61044B01221A701A78D107FCD47047A2
:1026500000040040000C0040F8B50C784B782402D0
:10266000051C061C0443002B02D08023DB021C4304
:102670004B7A002B02D080231B031C434B68012B99
:1026800013D95E1E1E400222002E09D19A4202D2A8
:1026900001365200FAE7360280232E435B0303E043
:1026A0001E0280232E439B021C430B7A002B02D078
:1026B00080239B031C430C4FB8470028FBD10B4BD6
:1026C00098470B4B1D70B8470028FCD1094DAE60F0
:1026D000B8470028FCD16A6880235B0213401C4382
:1026E0006C60054B9847F8BD2D26000019230000AB
:1026F000080C0040000C00404D23000038B5051CBC
:10270000094CA0470028FBD1084B9847084B1D7087
:10271000A0470028FCD1074B8022596852020A4387
:102720005A60054B984738BD2D260000192300003C
:10273000040C0040000C00404D23000010B5074B76
:10274000041C9847064B80221C70064BD201598806
:102750000A435A80044B984710BDC0461923000015
:10276000020C0040000C00404D23000038B50F4B18
:10277000041C98470E4B0F4A1C700F4B5988588801
:102780000905104058805C880C48090F204058808B
:10279000101C5C88084A6504FBD453880902034076
:1027A0000B435380064B984738BDC04619230000A1
:1027B000020C0040FFF0FFFF000C0040FFBFFFFFD6
:1027C0004D23000010B50C78034B240204439847B6
:1027D000024BA4B25C8010BD6D270000000C0040CD
:1027E00030B5D47800239C421AD11478802C03D0C1
:1027F000802324065B02234354780225AC4309D18D
:102800009478002C02D18024A40201E0C024E402C8
:10281000234341605478013C012C01D80F4C2340E4
:10282000A0248DB2E4052C431C438462D0240D0CFB
:1028300024062C431C438462D478002C0CD15C0306
:1028400005D59378012B01D1816100E04161537876
:10285000013B012B00D8816030BDC046FFFFFBFF6C
:1028600008B5031C0A1C4009D90903D10549C00158
:10287000401800E000201F210B4001219940024B2D
:10288000984708BD00440041E12700007047000060
:1028900008B5044B9847044B9847044B9847044BA2
:1028A000984708BD192500007D2300008D280000F1
:1028B0008D280000FEE700001148124910B588423B
:1028C00001D0002301E0104B07E0104CCA18A242CF
:1028D000F9D2C45804331460F7E70D4A191D043BBC
:1028E000934203D200221A600B1CF6E7094A0A4BF6
:1028F0007F218A439A60094B9847094B9847FEE726
:10290000F430000000000020F4000020F00000205F
:10291000D40B00200000000000ED00E0513000006A
:10292000312E000010B51E4B1A6801321A6019686A
:102930001C4A914209D91C4A1C4908201368C867DF
:10294000997A49B200290CDAFAE7FA2118684900A5
:10295000174B9847002921D18022164B1205DA61C6
:102960001CE019880224A1431980136880221A727E
:10297000114AC02308215B00D150104B984772B612
:10298000BFF35F8F0E4B00221A700E4B0F215A7847
:102990008A435A701A7814431C70FEE710BDC04673
:1029A0000C070020102700009C0A002004E100E032
:1029B000792F00000044004100E100E09D08000084
:1029C000E80000200010004008B5044B984700289C
:1029D000FBD00020024B9847C0B208BD5105000053
:1029E0006105000010B5041C034B98470028FBD07C
:1029F000201C024B984710BD61060000E90600004C
:102A00000B4B0C4A1968914211D91A68D2B2002AAC
:102A100009D01A68012152085200494211801A68EF
:102A200002321A60F1E7044B1B7DDA07FBD57047D1
:102A3000EC000020FF5F00000040004110B50B1CBF
:102A400000225C1AA4B2844203D21C780133624093
:102A5000F7E7101C10BD0000F0B5944BC9B05879D1
:102A60006946087001381C2800D9F8E000F036FAF1
:102A70000F5A32F7F75DF7F7F7F7F7F7F7F7F7AD14
:102A800053869EC2F7F7F7F7F7F725F76B00002399
:102A90004B7008238B704123CB7056230B7152234C
:102AA0004B7149238B715323CB7150230B725F23DE
:102AB0004B7232238B720B24D2E05A7A00234B7074
:102AC00002218A1A7A49D2006E461141B170F37020
:102AD0000424C5E09B7900224A70902B10D006D8C0
:102AE000802B0BD0812B11D102238B7011E0912B05
:102AF00009D0922B0AD105238B700AE0012306E04E
:102B000003248C70ACE004238B7002E00023694640
:102B10008B700324A4E000234B70664A664B1A6056
:102B200002249DE000234B70FAE79979DA790906CF
:102B300012040A43597A1B7A0A431B021A435F4B59
:102B400052001A602EE0597A002230290DD16E46CB
:102B5000DB7AF1700221CB1A5549DB001941727002
:102B6000B27032717171B27106E068464270827063
:102B7000C170027142718271072471E0C022D201DA
:102B80004F4B197D188B2021FF3101431983910888
:102B90004900D9614B4901321980FF328023DB02A1
:102BA0009A42EDD1002369464B70B9E79879DA79FA
:102BB0004249000210180C68434A80B2944208D877
:102BC0000B68C018414B0860984700236A46537051
:102BD000A6E70F3300228242F2D25D780C681E789D
:102BE00014192D02640875196400ADB225800232F3
:102BF0000233F0E79879DB790002304A18186E4604
:102C0000002381B27370304D1668CC1CA4B2AE4262
:102C10001DD98B4212D21568981C5D196D086D0084
:102C20002D886E463554156800AE5B195B085B0055
:102C30001D8833182D0A5D70031CEAE7136800A88D
:102C4000C91803191160013B00221A7008E0834281
:102C5000F4D000AEF518FF26AE700133F7E700247C
:102C60001B4D1B20A8471B4B260A1F78381CA84762
:102C7000F0B2A8471B235F4067407E40E0B2F7B246
:102C8000A8470E204740A8470026B3B2A34204D26B
:102C90006946885DA8470136F7E769460E4B201C58
:102CA00098474740F8B2A84749B0F0BDB40A0020A1
:102CB00001981E001C2500000C070020EC000020DD
:102CC0000040004102A5FFFFFF5F0000012A000055
:102CD000E52900000A0700203D2A0000F8B500277A
:102CE0003D1C3C1C1F4B98471F49061C485501358D
:102CF000062CF7D8201C00F0F1F804080C11171C62
:102D000023001B2E28D00025ECE7184B02241E7050
:102D1000E8E7174B36021E800324E3E7144B042434
:102D20001A8816431E80DDE70E2E17D100270524D2
:102D3000D8E70F4B01371B889F42D3D10624D1E738
:102D4000013DA8B20B4B98470025B04207D10A4B72
:102D50001D600A4B9847F8BD0124C3E700252C1CD1
:102D6000C0E7C046C9290000B40A00200A070020B5
:102D7000080700203D2A00000C070020592A000007
:102D8000094B0421DA690A43DA61084B2022198BC6
:102D9000FF320A431A831A7DD10703D559681E22D0
:102DA0000A405A607047C04600040040004000419D
:102DB0007FB500236A46164CD3701380937002933C
:102DC0000393012313711349134B201C134E98478F
:102DD00008222368326021688A7A52B2002AFBDB1B
:102DE0001A8802252A431A80201C2A1C0C490D4BE4
:102DF0009847291C201C0C4B9847201C01210B4B89
:102E00009847C023AB40F2581202120AF2507FBD1D
:102E10009C0A002000140040090D000000E100E0C1
:102E200025290000010E0000390E0000DD0D000014
:102E300008B51D4B1A7852B2002A03DB1A7802211A
:102E40008A431A70194B1A78D10611D41B785A0686
:102E50000ED4C023DB01188815491A1C884207D0FC
:102E60001B6883F30888134B9A60134B1B689847C1
:102E7000124B01221A70BFF35F8F62B6104B984756
:102E8000104B9847104B9847104B9847104AC12356
:102E90009B00D05880210002000AC9050143D1508F
:102EA0000C4B9847FCE7C046001000403804004037
:102EB000FFFF000000ED00E004600000E8000020DB
:102EC00091280000B12D0000812D00004D08000068
:102ED00000E100E0DD2C00007047000002B4714604
:102EE00049084900095C49008E4402BC7047C0464D
:102EF000002934D00123002210B488422CD30124AD
:102F00002407A14204D2814202D209011B01F8E741
:102F1000E400A14204D2814202D249005B00F8E7FA
:102F2000884201D3401A1A434C08A04202D3001B26
:102F30005C0822438C08A04202D3001B9C08224359
:102F4000CC08A04202D3001BDC082243002803D097
:102F50001B0901D00909E3E7101C10BC70470028C9
:102F600001D00020C04307B4024802A140180290DB
:102F700003BDC046D90000000029F0D003B5FFF71B
:102F8000B9FF0EBC4243891A1847C046002941D0F8
:102F900010B4041C4C40A44601230022002900D593
:102FA0004942002800D5404288422CD301242407FE
:102FB000A14204D2814202D209011B01F8E7E400D8
:102FC000A14204D2814202D249005B00F8E7884264
:102FD00001D3401A1A434C08A04202D3001B5C08DC
:102FE00022438C08A04202D3001B9C082243CC0839
:102FF000A04202D3001BDC082243002803D01B0997
:1030000001D00909E3E7101C6446002C00D54042BA
:1030100010BC7047002806D003DB0020C0434008E6
:1030200001E08020000607B4024802A14018029087
:1030300003BDC046190000000029EBD003B5FFF71F
:10304000A7FF0EBC4243891A1847C0467047C046C6
:1030500070B50E4B0E4D0024ED1AAD101E1CAC4287
:1030600004D0A300F35898470134F8E700F032F891
:10307000084B094D0024ED1AAD101E1CAC4204D0C3
:10308000A300F35898470134F8E770BDE030000022
:10309000E0300000E0300000E430000010B5002314
:1030A000934203D0CC5CC4540133F9E710BD031C38
:1030B0008218934202D019700133FAE77047000377
:1030C00002010400080070008000010000010002FD
:1030D000030C1060F8B5C046F8BC08BC9E467047AB
:1030E000D9000000F8B5C046F8BC08BC9E46704741
:0430F000B10000002B
:1030F4006D0400003D010000590100005D01000065
:1031040051030000610100002D010000E1010000F5
:103114005D010000000000004344432056697274BE
:1031240075616C20436F6D0041544D454C204153F3
:103134004600000000030000000000000000000042
:10314400000000000000000000000000000000007B
:103154000000000004030904050F0C00010710021D
:103164001E09000090000020880000206800002054
:103174001400002000000020A40000208000002093
:103184001201010202000040EB03042400010102C9
:103194000001000009024300020100C032090400DA
:1031A40000010202010005240010010424020205AA
:1031B40024060001052401030107058303400010D0
:1031C40009040100020A0000000705810240000012
:1031D400070502024000000001000000006000003A
:04000003000028B918
:00000001FF
